{
  "_format": "hh-sol-artifact-1",
  "contractName": "WhatIsTheBest",
  "sourceName": "contracts/WhatIsTheBest.sol",
  "abi": [
    {
      "inputs": [],
      "stateMutability": "nonpayable",
      "type": "constructor"
    },
    {
      "anonymous": false,
      "inputs": [
        {
          "indexed": true,
          "internalType": "address",
          "name": "owner",
          "type": "address"
        },
        {
          "indexed": true,
          "internalType": "address",
          "name": "spender",
          "type": "address"
        },
        {
          "indexed": false,
          "internalType": "uint256",
          "name": "value",
          "type": "uint256"
        }
      ],
      "name": "Approval",
      "type": "event"
    },
    {
      "anonymous": false,
      "inputs": [
        {
          "indexed": false,
          "internalType": "address",
          "name": "from",
          "type": "address"
        },
        {
          "indexed": false,
          "internalType": "uint256",
          "name": "amount",
          "type": "uint256"
        },
        {
          "indexed": false,
          "internalType": "uint256",
          "name": "total",
          "type": "uint256"
        },
        {
          "indexed": false,
          "internalType": "bool",
          "name": "isHighest",
          "type": "bool"
        }
      ],
      "name": "Burn",
      "type": "event"
    },
    {
      "anonymous": false,
      "inputs": [
        {
          "indexed": false,
          "internalType": "address",
          "name": "from",
          "type": "address"
        },
        {
          "indexed": false,
          "internalType": "uint256",
          "name": "amount",
          "type": "uint256"
        },
        {
          "indexed": false,
          "internalType": "uint256",
          "name": "total",
          "type": "uint256"
        }
      ],
      "name": "Donation",
      "type": "event"
    },
    {
      "anonymous": false,
      "inputs": [
        {
          "indexed": true,
          "internalType": "address",
          "name": "from",
          "type": "address"
        },
        {
          "indexed": true,
          "internalType": "address",
          "name": "to",
          "type": "address"
        },
        {
          "indexed": false,
          "internalType": "uint256",
          "name": "value",
          "type": "uint256"
        }
      ],
      "name": "Transfer",
      "type": "event"
    },
    {
      "inputs": [
        {
          "internalType": "address",
          "name": "owner",
          "type": "address"
        },
        {
          "internalType": "address",
          "name": "spender",
          "type": "address"
        }
      ],
      "name": "allowance",
      "outputs": [
        {
          "internalType": "uint256",
          "name": "",
          "type": "uint256"
        }
      ],
      "stateMutability": "view",
      "type": "function"
    },
    {
      "inputs": [
        {
          "internalType": "address",
          "name": "spender",
          "type": "address"
        },
        {
          "internalType": "uint256",
          "name": "amount",
          "type": "uint256"
        }
      ],
      "name": "approve",
      "outputs": [
        {
          "internalType": "bool",
          "name": "",
          "type": "bool"
        }
      ],
      "stateMutability": "nonpayable",
      "type": "function"
    },
    {
      "inputs": [
        {
          "internalType": "address",
          "name": "account",
          "type": "address"
        }
      ],
      "name": "balanceOf",
      "outputs": [
        {
          "internalType": "uint256",
          "name": "",
          "type": "uint256"
        }
      ],
      "stateMutability": "view",
      "type": "function"
    },
    {
      "inputs": [
        {
          "internalType": "uint256",
          "name": "amount",
          "type": "uint256"
        },
        {
          "internalType": "string",
          "name": "best",
          "type": "string"
        }
      ],
      "name": "burn",
      "outputs": [],
      "stateMutability": "nonpayable",
      "type": "function"
    },
    {
      "inputs": [
        {
          "internalType": "address[]",
          "name": "donationAdresses",
          "type": "address[]"
        }
      ],
      "name": "burnedTokens",
      "outputs": [
        {
          "internalType": "uint256[]",
          "name": "",
          "type": "uint256[]"
        }
      ],
      "stateMutability": "view",
      "type": "function"
    },
    {
      "inputs": [],
      "name": "decimals",
      "outputs": [
        {
          "internalType": "uint8",
          "name": "",
          "type": "uint8"
        }
      ],
      "stateMutability": "view",
      "type": "function"
    },
    {
      "inputs": [
        {
          "internalType": "address",
          "name": "spender",
          "type": "address"
        },
        {
          "internalType": "uint256",
          "name": "subtractedValue",
          "type": "uint256"
        }
      ],
      "name": "decreaseAllowance",
      "outputs": [
        {
          "internalType": "bool",
          "name": "",
          "type": "bool"
        }
      ],
      "stateMutability": "nonpayable",
      "type": "function"
    },
    {
      "inputs": [],
      "name": "donate",
      "outputs": [],
      "stateMutability": "payable",
      "type": "function"
    },
    {
      "inputs": [],
      "name": "donationAddress",
      "outputs": [
        {
          "internalType": "address payable",
          "name": "",
          "type": "address"
        }
      ],
      "stateMutability": "view",
      "type": "function"
    },
    {
      "inputs": [
        {
          "internalType": "address[]",
          "name": "donationAdresses",
          "type": "address[]"
        }
      ],
      "name": "donations",
      "outputs": [
        {
          "internalType": "uint256[]",
          "name": "",
          "type": "uint256[]"
        }
      ],
      "stateMutability": "view",
      "type": "function"
    },
    {
      "inputs": [],
      "name": "doners",
      "outputs": [
        {
          "internalType": "address[]",
          "name": "",
          "type": "address[]"
        }
      ],
      "stateMutability": "view",
      "type": "function"
    },
    {
      "inputs": [],
      "name": "highestBurnedAmount",
      "outputs": [
        {
          "internalType": "uint256",
          "name": "",
          "type": "uint256"
        }
      ],
      "stateMutability": "view",
      "type": "function"
    },
    {
      "inputs": [
        {
          "internalType": "address",
          "name": "spender",
          "type": "address"
        },
        {
          "internalType": "uint256",
          "name": "addedValue",
          "type": "uint256"
        }
      ],
      "name": "increaseAllowance",
      "outputs": [
        {
          "internalType": "bool",
          "name": "",
          "type": "bool"
        }
      ],
      "stateMutability": "nonpayable",
      "type": "function"
    },
    {
      "inputs": [],
      "name": "name",
      "outputs": [
        {
          "internalType": "string",
          "name": "",
          "type": "string"
        }
      ],
      "stateMutability": "view",
      "type": "function"
    },
    {
      "inputs": [],
      "name": "symbol",
      "outputs": [
        {
          "internalType": "string",
          "name": "",
          "type": "string"
        }
      ],
      "stateMutability": "view",
      "type": "function"
    },
    {
      "inputs": [],
      "name": "theBest",
      "outputs": [
        {
          "internalType": "string",
          "name": "",
          "type": "string"
        }
      ],
      "stateMutability": "view",
      "type": "function"
    },
    {
      "inputs": [],
      "name": "totalDonations",
      "outputs": [
        {
          "internalType": "uint256",
          "name": "",
          "type": "uint256"
        }
      ],
      "stateMutability": "view",
      "type": "function"
    },
    {
      "inputs": [],
      "name": "totalSupply",
      "outputs": [
        {
          "internalType": "uint256",
          "name": "",
          "type": "uint256"
        }
      ],
      "stateMutability": "view",
      "type": "function"
    },
    {
      "inputs": [
        {
          "internalType": "address",
          "name": "recipient",
          "type": "address"
        },
        {
          "internalType": "uint256",
          "name": "amount",
          "type": "uint256"
        }
      ],
      "name": "transfer",
      "outputs": [
        {
          "internalType": "bool",
          "name": "",
          "type": "bool"
        }
      ],
      "stateMutability": "nonpayable",
      "type": "function"
    },
    {
      "inputs": [
        {
          "internalType": "address",
          "name": "sender",
          "type": "address"
        },
        {
          "internalType": "address",
          "name": "recipient",
          "type": "address"
        },
        {
          "internalType": "uint256",
          "name": "amount",
          "type": "uint256"
        }
      ],
      "name": "transferFrom",
      "outputs": [
        {
          "internalType": "bool",
          "name": "",
          "type": "bool"
        }
      ],
      "stateMutability": "nonpayable",
      "type": "function"
    },
    {
      "stateMutability": "payable",
      "type": "receive"
    }
  ],
  "bytecode": "0x608060405260405180602001604052806000815250600a90805190602001906200002b92919062000135565b5073fa347be7039d6627878676ea3f2b3b4d766fa651600b60006101000a81548173ffffffffffffffffffffffffffffffffffffffff021916908373ffffffffffffffffffffffffffffffffffffffff1602179055503480156200008e57600080fd5b506040518060400160405280600d81526020017f57686174497354686542657374000000000000000000000000000000000000008152506040518060400160405280600481526020017f574954420000000000000000000000000000000000000000000000000000000081525081600390805190602001906200011392919062000135565b5080600490805190602001906200012c92919062000135565b5050506200024a565b8280546200014390620001e5565b90600052602060002090601f016020900481019282620001675760008555620001b3565b82601f106200018257805160ff1916838001178555620001b3565b82800160010185558215620001b3579182015b82811115620001b257825182559160200191906001019062000195565b5b509050620001c29190620001c6565b5090565b5b80821115620001e1576000816000905550600101620001c7565b5090565b60006002820490506001821680620001fe57607f821691505b602082108114156200021557620002146200021b565b5b50919050565b7f4e487b7100000000000000000000000000000000000000000000000000000000600052602260045260246000fd5b612aba806200025a6000396000f3fe6080604052600436106101235760003560e01c80637641e6f3116100a0578063de2ed89311610064578063de2ed8931461044a578063e46956f114610475578063ec034bed146104a0578063ed88c68e146104cb578063fdf3667d146104d557610132565b80637641e6f31461033f57806395d89b4114610368578063a457c2d714610393578063a9059cbb146103d0578063dd62ed3e1461040d57610132565b8063288131b2116100e7578063288131b214610232578063313ce5671461026f578063325f9d261461029a57806339509351146102c557806370a082311461030257610132565b806306fdde0314610137578063095ea7b3146101625780630bf419921461019f57806318160ddd146101ca57806323b872dd146101f557610132565b3661013257610130610512565b005b600080fd5b34801561014357600080fd5b5061014c61075f565b60405161015991906121db565b60405180910390f35b34801561016e57600080fd5b5061018960048036038101906101849190611cde565b6107f1565b60405161019691906121c0565b60405180910390f35b3480156101ab57600080fd5b506101b461080f565b6040516101c1919061217c565b60405180910390f35b3480156101d657600080fd5b506101df61089d565b6040516101ec919061237d565b60405180910390f35b34801561020157600080fd5b5061021c60048036038101906102179190611c8f565b6108a7565b60405161022991906121c0565b60405180910390f35b34801561023e57600080fd5b5061025960048036038101906102549190611d1a565b61099f565b604051610266919061219e565b60405180910390f35b34801561027b57600080fd5b50610284610b15565b6040516102919190612398565b60405180910390f35b3480156102a657600080fd5b506102af610b1e565b6040516102bc919061237d565b60405180910390f35b3480156102d157600080fd5b506102ec60048036038101906102e79190611cde565b610b28565b6040516102f991906121c0565b60405180910390f35b34801561030e57600080fd5b5061032960048036038101906103249190611c2a565b610bd4565b604051610336919061237d565b60405180910390f35b34801561034b57600080fd5b5061036660048036038101906103619190611d5f565b610c1c565b005b34801561037457600080fd5b5061037d610e69565b60405161038a91906121db565b60405180910390f35b34801561039f57600080fd5b506103ba60048036038101906103b59190611cde565b610efb565b6040516103c791906121c0565b60405180910390f35b3480156103dc57600080fd5b506103f760048036038101906103f29190611cde565b610fe6565b60405161040491906121c0565b60405180910390f35b34801561041957600080fd5b50610434600480360381019061042f9190611c53565b611057565b604051610441919061237d565b60405180910390f35b34801561045657600080fd5b5061045f6110de565b60405161046c919061237d565b60405180910390f35b34801561048157600080fd5b5061048a6110e8565b60405161049791906121db565b60405180910390f35b3480156104ac57600080fd5b506104b561117a565b6040516104c291906120e5565b60405180910390f35b6104d3610512565b005b3480156104e157600080fd5b506104fc60048036038101906104f79190611d1a565b6111a0565b604051610509919061219e565b60405180910390f35b60003411610555576040517f08c379a000000000000000000000000000000000000000000000000000000000815260040161054c906122fd565b60405180910390fd5b600b60009054906101000a900473ffffffffffffffffffffffffffffffffffffffff1673ffffffffffffffffffffffffffffffffffffffff166108fc349081150290604051600060405180830381858888f193505050501580156105bd573d6000803e3d6000fd5b506105c83334611316565b6000600760003373ffffffffffffffffffffffffffffffffffffffff1673ffffffffffffffffffffffffffffffffffffffff168152602001908152602001600020541415610674576009339080600181540180825580915050600190039060005260206000200160009091909190916101000a81548173ffffffffffffffffffffffffffffffffffffffff021916908373ffffffffffffffffffffffffffffffffffffffff1602179055505b34600760003373ffffffffffffffffffffffffffffffffffffffff1673ffffffffffffffffffffffffffffffffffffffff16815260200190815260200160002060008282546106c39190612497565b9250508190555034600860008282546106dc9190612497565b925050819055507f106aac375bbcf013d1e52338bbf9e740009a1a3a6869f8daa1b72aa1620f5fec3334600760003373ffffffffffffffffffffffffffffffffffffffff1673ffffffffffffffffffffffffffffffffffffffff1681526020019081526020016000205460405161075593929190612100565b60405180910390a1565b60606003805461076e906125ca565b80601f016020809104026020016040519081016040528092919081815260200182805461079a906125ca565b80156107e75780601f106107bc576101008083540402835291602001916107e7565b820191906000526020600020905b8154815290600101906020018083116107ca57829003601f168201915b5050505050905090565b60006108056107fe611476565b848461147e565b6001905092915050565b6060600980548060200260200160405190810160405280929190818152602001828054801561089357602002820191906000526020600020905b8160009054906101000a900473ffffffffffffffffffffffffffffffffffffffff1673ffffffffffffffffffffffffffffffffffffffff1681526020019060010190808311610849575b5050505050905090565b6000600254905090565b60006108b4848484611649565b6000600160008673ffffffffffffffffffffffffffffffffffffffff1673ffffffffffffffffffffffffffffffffffffffff16815260200190815260200160002060006108ff611476565b73ffffffffffffffffffffffffffffffffffffffff1673ffffffffffffffffffffffffffffffffffffffff1681526020019081526020016000205490508281101561097f576040517f08c379a00000000000000000000000000000000000000000000000000000000081526004016109769061227d565b60405180910390fd5b6109938561098b611476565b85840361147e565b60019150509392505050565b606060008383905067ffffffffffffffff8111156109e6577f4e487b7100000000000000000000000000000000000000000000000000000000600052604160045260246000fd5b604051908082528060200260200182016040528015610a145781602001602082028036833780820191505090505b50905060005b84849050811015610b0a5760076000868684818110610a62577f4e487b7100000000000000000000000000000000000000000000000000000000600052603260045260246000fd5b9050602002016020810190610a779190611c2a565b73ffffffffffffffffffffffffffffffffffffffff1673ffffffffffffffffffffffffffffffffffffffff16815260200190815260200160002054828281518110610aeb577f4e487b7100000000000000000000000000000000000000000000000000000000600052603260045260246000fd5b6020026020010181815250508080610b029061262d565b915050610a1a565b508091505092915050565b60006012905090565b6000600654905090565b6000610bca610b35611476565b848460016000610b43611476565b73ffffffffffffffffffffffffffffffffffffffff1673ffffffffffffffffffffffffffffffffffffffff16815260200190815260200160002060008873ffffffffffffffffffffffffffffffffffffffff1673ffffffffffffffffffffffffffffffffffffffff16815260200190815260200160002054610bc59190612497565b61147e565b6001905092915050565b60008060008373ffffffffffffffffffffffffffffffffffffffff1673ffffffffffffffffffffffffffffffffffffffff168152602001908152602001600020549050919050565b60008211610c5f576040517f08c379a0000000000000000000000000000000000000000000000000000000008152600401610c569061231d565b60405180910390fd5b610c6933836118ca565b81600560003373ffffffffffffffffffffffffffffffffffffffff1673ffffffffffffffffffffffffffffffffffffffff1681526020019081526020016000206000828254610cb89190612497565b92505081905550600654600560003373ffffffffffffffffffffffffffffffffffffffff1673ffffffffffffffffffffffffffffffffffffffff168152602001908152602001600020541115610de75780600a9080519060200190610d1e929190611aab565b50600560003373ffffffffffffffffffffffffffffffffffffffff1673ffffffffffffffffffffffffffffffffffffffff168152602001908152602001600020546006819055507ffa39e2bb54a9175f4c4bd65b9c39a59f5c19928f1c0824586f2ed8e4593b27a73383600560003373ffffffffffffffffffffffffffffffffffffffff1673ffffffffffffffffffffffffffffffffffffffff168152602001908152602001600020546001604051610dda9493929190612137565b60405180910390a1610e65565b7ffa39e2bb54a9175f4c4bd65b9c39a59f5c19928f1c0824586f2ed8e4593b27a73383600560003373ffffffffffffffffffffffffffffffffffffffff1673ffffffffffffffffffffffffffffffffffffffff168152602001908152602001600020546000604051610e5c9493929190612137565b60405180910390a15b5050565b606060048054610e78906125ca565b80601f0160208091040260200160405190810160405280929190818152602001828054610ea4906125ca565b8015610ef15780601f10610ec657610100808354040283529160200191610ef1565b820191906000526020600020905b815481529060010190602001808311610ed457829003601f168201915b5050505050905090565b60008060016000610f0a611476565b73ffffffffffffffffffffffffffffffffffffffff1673ffffffffffffffffffffffffffffffffffffffff16815260200190815260200160002060008573ffffffffffffffffffffffffffffffffffffffff1673ffffffffffffffffffffffffffffffffffffffff16815260200190815260200160002054905082811015610fc7576040517f08c379a0000000000000000000000000000000000000000000000000000000008152600401610fbe9061233d565b60405180910390fd5b610fdb610fd2611476565b8585840361147e565b600191505092915050565b60003073ffffffffffffffffffffffffffffffffffffffff168373ffffffffffffffffffffffffffffffffffffffff16141561103a576110358260405180602001604052806000815250610c1c565b61104d565b61104c611045611476565b8484611649565b5b6001905092915050565b6000600160008473ffffffffffffffffffffffffffffffffffffffff1673ffffffffffffffffffffffffffffffffffffffff16815260200190815260200160002060008373ffffffffffffffffffffffffffffffffffffffff1673ffffffffffffffffffffffffffffffffffffffff16815260200190815260200160002054905092915050565b6000600854905090565b6060600a80546110f7906125ca565b80601f0160208091040260200160405190810160405280929190818152602001828054611123906125ca565b80156111705780601f1061114557610100808354040283529160200191611170565b820191906000526020600020905b81548152906001019060200180831161115357829003601f168201915b5050505050905090565b600b60009054906101000a900473ffffffffffffffffffffffffffffffffffffffff1681565b606060008383905067ffffffffffffffff8111156111e7577f4e487b7100000000000000000000000000000000000000000000000000000000600052604160045260246000fd5b6040519080825280602002602001820160405280156112155781602001602082028036833780820191505090505b50905060005b8484905081101561130b5760056000868684818110611263577f4e487b7100000000000000000000000000000000000000000000000000000000600052603260045260246000fd5b90506020020160208101906112789190611c2a565b73ffffffffffffffffffffffffffffffffffffffff1673ffffffffffffffffffffffffffffffffffffffff168152602001908152602001600020548282815181106112ec577f4e487b7100000000000000000000000000000000000000000000000000000000600052603260045260246000fd5b60200260200101818152505080806113039061262d565b91505061121b565b508091505092915050565b600073ffffffffffffffffffffffffffffffffffffffff168273ffffffffffffffffffffffffffffffffffffffff161415611386576040517f08c379a000000000000000000000000000000000000000000000000000000000815260040161137d9061235d565b60405180910390fd5b61139260008383611aa1565b80600260008282546113a49190612497565b92505081905550806000808473ffffffffffffffffffffffffffffffffffffffff1673ffffffffffffffffffffffffffffffffffffffff16815260200190815260200160002060008282546113f99190612497565b925050819055508173ffffffffffffffffffffffffffffffffffffffff16600073ffffffffffffffffffffffffffffffffffffffff167fddf252ad1be2c89b69c2b068fc378daa952ba7f163c4a11628f55a4df523b3ef8360405161145e919061237d565b60405180910390a361147260008383611aa6565b5050565b600033905090565b600073ffffffffffffffffffffffffffffffffffffffff168373ffffffffffffffffffffffffffffffffffffffff1614156114ee576040517f08c379a00000000000000000000000000000000000000000000000000000000081526004016114e5906122dd565b60405180910390fd5b600073ffffffffffffffffffffffffffffffffffffffff168273ffffffffffffffffffffffffffffffffffffffff16141561155e576040517f08c379a00000000000000000000000000000000000000000000000000000000081526004016115559061223d565b60405180910390fd5b80600160008573ffffffffffffffffffffffffffffffffffffffff1673ffffffffffffffffffffffffffffffffffffffff16815260200190815260200160002060008473ffffffffffffffffffffffffffffffffffffffff1673ffffffffffffffffffffffffffffffffffffffff168152602001908152602001600020819055508173ffffffffffffffffffffffffffffffffffffffff168373ffffffffffffffffffffffffffffffffffffffff167f8c5be1e5ebec7d5bd14f71427d1e84f3dd0314c0f7b2291e5b200ac8c7c3b9258360405161163c919061237d565b60405180910390a3505050565b600073ffffffffffffffffffffffffffffffffffffffff168373ffffffffffffffffffffffffffffffffffffffff1614156116b9576040517f08c379a00000000000000000000000000000000000000000000000000000000081526004016116b0906122bd565b60405180910390fd5b600073ffffffffffffffffffffffffffffffffffffffff168273ffffffffffffffffffffffffffffffffffffffff161415611729576040517f08c379a0000000000000000000000000000000000000000000000000000000008152600401611720906121fd565b60405180910390fd5b611734838383611aa1565b60008060008573ffffffffffffffffffffffffffffffffffffffff1673ffffffffffffffffffffffffffffffffffffffff168152602001908152602001600020549050818110156117ba576040517f08c379a00000000000000000000000000000000000000000000000000000000081526004016117b19061225d565b60405180910390fd5b8181036000808673ffffffffffffffffffffffffffffffffffffffff1673ffffffffffffffffffffffffffffffffffffffff16815260200190815260200160002081905550816000808573ffffffffffffffffffffffffffffffffffffffff1673ffffffffffffffffffffffffffffffffffffffff168152602001908152602001600020600082825461184d9190612497565b925050819055508273ffffffffffffffffffffffffffffffffffffffff168473ffffffffffffffffffffffffffffffffffffffff167fddf252ad1be2c89b69c2b068fc378daa952ba7f163c4a11628f55a4df523b3ef846040516118b1919061237d565b60405180910390a36118c4848484611aa6565b50505050565b600073ffffffffffffffffffffffffffffffffffffffff168273ffffffffffffffffffffffffffffffffffffffff16141561193a576040517f08c379a00000000000000000000000000000000000000000000000000000000081526004016119319061229d565b60405180910390fd5b61194682600083611aa1565b60008060008473ffffffffffffffffffffffffffffffffffffffff1673ffffffffffffffffffffffffffffffffffffffff168152602001908152602001600020549050818110156119cc576040517f08c379a00000000000000000000000000000000000000000000000000000000081526004016119c39061221d565b60405180910390fd5b8181036000808573ffffffffffffffffffffffffffffffffffffffff1673ffffffffffffffffffffffffffffffffffffffff168152602001908152602001600020819055508160026000828254611a2391906124ed565b92505081905550600073ffffffffffffffffffffffffffffffffffffffff168373ffffffffffffffffffffffffffffffffffffffff167fddf252ad1be2c89b69c2b068fc378daa952ba7f163c4a11628f55a4df523b3ef84604051611a88919061237d565b60405180910390a3611a9c83600084611aa6565b505050565b505050565b505050565b828054611ab7906125ca565b90600052602060002090601f016020900481019282611ad95760008555611b20565b82601f10611af257805160ff1916838001178555611b20565b82800160010185558215611b20579182015b82811115611b1f578251825591602001919060010190611b04565b5b509050611b2d9190611b31565b5090565b5b80821115611b4a576000816000905550600101611b32565b5090565b6000611b61611b5c846123d8565b6123b3565b905082815260208101848484011115611b7957600080fd5b611b84848285612588565b509392505050565b600081359050611b9b81612a56565b92915050565b60008083601f840112611bb357600080fd5b8235905067ffffffffffffffff811115611bcc57600080fd5b602083019150836020820283011115611be457600080fd5b9250929050565b600082601f830112611bfc57600080fd5b8135611c0c848260208601611b4e565b91505092915050565b600081359050611c2481612a6d565b92915050565b600060208284031215611c3c57600080fd5b6000611c4a84828501611b8c565b91505092915050565b60008060408385031215611c6657600080fd5b6000611c7485828601611b8c565b9250506020611c8585828601611b8c565b9150509250929050565b600080600060608486031215611ca457600080fd5b6000611cb286828701611b8c565b9350506020611cc386828701611b8c565b9250506040611cd486828701611c15565b9150509250925092565b60008060408385031215611cf157600080fd5b6000611cff85828601611b8c565b9250506020611d1085828601611c15565b9150509250929050565b60008060208385031215611d2d57600080fd5b600083013567ffffffffffffffff811115611d4757600080fd5b611d5385828601611ba1565b92509250509250929050565b60008060408385031215611d7257600080fd5b6000611d8085828601611c15565b925050602083013567ffffffffffffffff811115611d9d57600080fd5b611da985828601611beb565b9150509250929050565b6000611dbf8383611df2565b60208301905092915050565b6000611dd783836120b8565b60208301905092915050565b611dec81612533565b82525050565b611dfb81612521565b82525050565b611e0a81612521565b82525050565b6000611e1b82612429565b611e258185612464565b9350611e3083612409565b8060005b83811015611e61578151611e488882611db3565b9750611e538361244a565b925050600181019050611e34565b5085935050505092915050565b6000611e7982612434565b611e838185612475565b9350611e8e83612419565b8060005b83811015611ebf578151611ea68882611dcb565b9750611eb183612457565b925050600181019050611e92565b5085935050505092915050565b611ed581612545565b82525050565b6000611ee68261243f565b611ef08185612486565b9350611f00818560208601612597565b611f0981612703565b840191505092915050565b6000611f21602383612486565b9150611f2c82612714565b604082019050919050565b6000611f44602283612486565b9150611f4f82612763565b604082019050919050565b6000611f67602283612486565b9150611f72826127b2565b604082019050919050565b6000611f8a602683612486565b9150611f9582612801565b604082019050919050565b6000611fad602883612486565b9150611fb882612850565b604082019050919050565b6000611fd0602183612486565b9150611fdb8261289f565b604082019050919050565b6000611ff3602583612486565b9150611ffe826128ee565b604082019050919050565b6000612016602483612486565b91506120218261293d565b604082019050919050565b6000612039601383612486565b91506120448261298c565b602082019050919050565b600061205c600f83612486565b9150612067826129b5565b602082019050919050565b600061207f602583612486565b915061208a826129de565b604082019050919050565b60006120a2601f83612486565b91506120ad82612a2d565b602082019050919050565b6120c181612571565b82525050565b6120d081612571565b82525050565b6120df8161257b565b82525050565b60006020820190506120fa6000830184611de3565b92915050565b60006060820190506121156000830186611e01565b61212260208301856120c7565b61212f60408301846120c7565b949350505050565b600060808201905061214c6000830187611e01565b61215960208301866120c7565b61216660408301856120c7565b6121736060830184611ecc565b95945050505050565b600060208201905081810360008301526121968184611e10565b905092915050565b600060208201905081810360008301526121b88184611e6e565b905092915050565b60006020820190506121d56000830184611ecc565b92915050565b600060208201905081810360008301526121f58184611edb565b905092915050565b6000602082019050818103600083015261221681611f14565b9050919050565b6000602082019050818103600083015261223681611f37565b9050919050565b6000602082019050818103600083015261225681611f5a565b9050919050565b6000602082019050818103600083015261227681611f7d565b9050919050565b6000602082019050818103600083015261229681611fa0565b9050919050565b600060208201905081810360008301526122b681611fc3565b9050919050565b600060208201905081810360008301526122d681611fe6565b9050919050565b600060208201905081810360008301526122f681612009565b9050919050565b600060208201905081810360008301526123168161202c565b9050919050565b600060208201905081810360008301526123368161204f565b9050919050565b6000602082019050818103600083015261235681612072565b9050919050565b6000602082019050818103600083015261237681612095565b9050919050565b600060208201905061239260008301846120c7565b92915050565b60006020820190506123ad60008301846120d6565b92915050565b60006123bd6123ce565b90506123c982826125fc565b919050565b6000604051905090565b600067ffffffffffffffff8211156123f3576123f26126d4565b5b6123fc82612703565b9050602081019050919050565b6000819050602082019050919050565b6000819050602082019050919050565b600081519050919050565b600081519050919050565b600081519050919050565b6000602082019050919050565b6000602082019050919050565b600082825260208201905092915050565b600082825260208201905092915050565b600082825260208201905092915050565b60006124a282612571565b91506124ad83612571565b9250827fffffffffffffffffffffffffffffffffffffffffffffffffffffffffffffffff038211156124e2576124e1612676565b5b828201905092915050565b60006124f882612571565b915061250383612571565b92508282101561251657612515612676565b5b828203905092915050565b600061252c82612551565b9050919050565b600061253e82612551565b9050919050565b60008115159050919050565b600073ffffffffffffffffffffffffffffffffffffffff82169050919050565b6000819050919050565b600060ff82169050919050565b82818337600083830152505050565b60005b838110156125b557808201518184015260208101905061259a565b838111156125c4576000848401525b50505050565b600060028204905060018216806125e257607f821691505b602082108114156125f6576125f56126a5565b5b50919050565b61260582612703565b810181811067ffffffffffffffff82111715612624576126236126d4565b5b80604052505050565b600061263882612571565b91507fffffffffffffffffffffffffffffffffffffffffffffffffffffffffffffffff82141561266b5761266a612676565b5b600182019050919050565b7f4e487b7100000000000000000000000000000000000000000000000000000000600052601160045260246000fd5b7f4e487b7100000000000000000000000000000000000000000000000000000000600052602260045260246000fd5b7f4e487b7100000000000000000000000000000000000000000000000000000000600052604160045260246000fd5b6000601f19601f8301169050919050565b7f45524332303a207472616e7366657220746f20746865207a65726f206164647260008201527f6573730000000000000000000000000000000000000000000000000000000000602082015250565b7f45524332303a206275726e20616d6f756e7420657863656564732062616c616e60008201527f6365000000000000000000000000000000000000000000000000000000000000602082015250565b7f45524332303a20617070726f766520746f20746865207a65726f20616464726560008201527f7373000000000000000000000000000000000000000000000000000000000000602082015250565b7f45524332303a207472616e7366657220616d6f756e742065786365656473206260008201527f616c616e63650000000000000000000000000000000000000000000000000000602082015250565b7f45524332303a207472616e7366657220616d6f756e742065786365656473206160008201527f6c6c6f77616e6365000000000000000000000000000000000000000000000000602082015250565b7f45524332303a206275726e2066726f6d20746865207a65726f2061646472657360008201527f7300000000000000000000000000000000000000000000000000000000000000602082015250565b7f45524332303a207472616e736665722066726f6d20746865207a65726f20616460008201527f6472657373000000000000000000000000000000000000000000000000000000602082015250565b7f45524332303a20617070726f76652066726f6d20746865207a65726f2061646460008201527f7265737300000000000000000000000000000000000000000000000000000000602082015250565b7f6e6f20666f756e647320746f20646f6e61746500000000000000000000000000600082015250565b7f6e6f7468696e6720746f206275726e0000000000000000000000000000000000600082015250565b7f45524332303a2064656372656173656420616c6c6f77616e63652062656c6f7760008201527f207a65726f000000000000000000000000000000000000000000000000000000602082015250565b7f45524332303a206d696e7420746f20746865207a65726f206164647265737300600082015250565b612a5f81612521565b8114612a6a57600080fd5b50565b612a7681612571565b8114612a8157600080fd5b5056fea2646970667358221220ae67b1ac5ea4713b25feda8fc6561295f86571e17f83692e88a59f0f9193440764736f6c63430008040033",
  "linkReferences": {},
  "deployedLinkReferences": {}
}